:020000040800F2
:10000000C8090020D5000008691100087710000811
:1000100000000000000000000000000000000000E0
:10002000000000000000000000000000DF110008D8
:100030000000000000000000DD110008E1110008D0
:10004000E7000008E7000008E7000008E7000008F4
:10005000E7000008E7000008E7000008E7000008E4
:10006000E7000008E7000008E7000008E7000008D4
:10007000E7000008E70000080000000095120008F3
:1000800000000000A51200080000000000000000B1
:10009000E700000800000000E7000008E700000893
:1000A000E7000008E7000008E7000008E700000894
:1000B000E7000008E700000800000000E700000873
:1000C0000348854600F050F800480047BD15000879
:1000D000C80900200448804704480047FEE7FEE7BF
:1000E000FEE7FEE7FEE7FEE741120008C100000858
:1000F00030B50B46014600202022012409E00D46C0
:10010000D5409D4205D31D469540491B2546954047
:1001100040191546521E002DF1DC30BDD2B201E06F
:100120000270401C491EFBD270470022F6E710B552
:1001300013460A4604461946FFF7F0FF204610BD55
:10014000421E5378521C002BFBD10B781370491CB4
:10015000521C002BF9D17047421C0178401C002929
:10016000FBD1801A70470000064C0125064E05E0C1
:10017000E36807CC2B430C3C98471034B442F7D3C8
:10018000FFF7A2FFE81A0008081B000870B5044634
:1001900000F0D8F80546601C02D004480078241806
:1001A00000F0D0F8401BA042FAD370BD1000002030
:1001B000FCB500230124A2E027462A469F403A408E
:1001C0006FD04D68012D05D0022D03D0112D01D027
:1001D000122D16D185680326AC465D00AE46AE40B2
:1001E0006546B543AC46CE687546AE4065462E437F
:1001F000866046680D79BE43ED06ED0F9D403543A0
:100200004560C6685F000325BD40AE46AE43354637
:100210008E68BE402E43C6604E68022E01D0122E5C
:1002200014D1DE08B60036180196366A5D07B4466A
:10023000EE0E0F25B54000966646AE43B4460D69F6
:10024000009EB54066462E43019D2E6206687546A7
:10025000AE430D79AD07AD0FBD40354305604D6828
:10026000ED004BD5294D6E6B26436E639E08284DDD
:10027000B6007519AC46AD689E07360F0F27B7401C
:10028000BD4305273F07B84201D1002715E0214FA4
:10029000B84201D1012710E01F4FB84202D1022716
:1002A0000BE02BE01D4FB84201D1032705E01C4FA6
:1002B000B84201D1052700E00627B7402F43654625
:1002C000AF60184D2E684F689643FF0300D5164364
:1002D0002E606E684F689643BF0300D516436E606C
:1002E000AE684F689643FF0200D51643AE60EE68D5
:1002F0004F689643BF0200D51643EE605B1C0A6848
:100300001546DA4000D057E7FCBD0000001002405F
:10031000000001400004005000080050000C005094
:10032000001C005000040140426913460B401B04AE
:1003300091430B4383617047002A01D0816170476C
:1003400081627047014880687047000010000020FB
:100350000248816802788918816070471000002087
:1003600010B508480024016840221143016020466E
:1003700000F00AF8002801D0012401E000F026F87E
:10038000204610BD0020024070B504460D4D7D2072
:100390002978C000FFF7ACFE01460B480068FFF764
:1003A000A7FE00F063FB002809D1042C07D200222D
:1003B0002146401E00F020F800206C6070BD012036
:1003C00070BD0000100000201C0000200448416B9C
:1003D000012211434163816B020411438163704721
:1003E00000100240C106C90E012088400149086082
:1003F0007047000000E100E010B500F0B7FE10BD4E
:10040000F8B50E4605007DD053480068C007C00F00
:10041000B0420AD25048016849084900314301609E
:100420000068C007C00FB04271D128784B4C8007DC
:1004300005D5E068F0218843A9680843E060287882
:10044000C00752D06868022817D0032818D0216846
:10045000012818D08905002959DAE168890889003E
:100460000143E160FFF76EFF69680746022912D079
:1004700003291CD0012926D033E021688903EAE74B
:1004800021688901E7E74907E5E7FFF75BFFC11B43
:100490003348814223D8E0680007800F0228F4D156
:1004A00023E0FFF74FFFC11B2D48814217D8E068BA
:1004B0000007800F0328F4D117E0FFF743FFC11BAB
:1004C000274881420BD8E0680007800F0128F4D14B
:1004D0000BE0FFF737FFC11B2148814201D9032000
:1004E000F8BDE0680007800FF3D11B480168C90719
:1004F000C90FB1420DD90168490849003143016073
:10050000006800E003E0C007C00FB04201D0012046
:10051000F8BD2878400706D5E0680721090288431E
:10052000E9680843E0602878000707D5E0680721FC
:10053000C90288432969C9000843E06000F016F841
:10054000E168084A0906090F515CC840064908607D
:100550000020FFF719FFF8BD002002400010024004
:1005600088130000CD1A00081C00002010B5184A9E
:10057000D1680C20084004280BD0082810D00C2883
:1005800010D050680004410F0120C003491C88406E
:1005900010BD1068C00601D50E4810BD0E4810BD34
:1005A0000E4810BD88020E4B000F185C0902D3687C
:1005B000890F491CDB0301D5084A05E01268D20601
:1005C00001D5044A00E0044A5043FFF791FD10BDF5
:1005D0000010024000093D000024F40000127A00DF
:1005E000DD1A0008FEB505007ED0FE4CE7680C2041
:1005F000E66807400120000406402878C00747D07D
:10060000082F05D00C2F0AD101200004864206D104
:10061000206880033CD568680028E5D038E00120D8
:1006200069680004814203D121680143216011E01F
:10063000052301221B0492049942216802D111432F
:100640002160F1E781432160216801400091206829
:1006500090432060686800280DD0FFF773FE00907B
:1006600005E0FFF76FFE0099401A64287AD82068E9
:100670008003F6D50CE0FFF765FE009005E0FFF77C
:1006800061FE0099401A6428F0D820688003F6D4EF
:100690002878800755D50923E868042F0DD00C2F42
:1006A00001D1002E09D000283BD021689943014395
:1006B0002160FFF747FE064627E02168490701D57C
:1006C000002891D061681F22120291432A69120208
:1006D000114361602168994301432160FFF746FFA0
:1006E000E16809060A0F00E0BBE1BF49895CC84028
:1006F000BE4908600020FFF747FE002872D120E0C5
:10070000FFF720FE801B0228B0D820684007F7D5ED
:1007100060681F2109028843296909020843606053
:100720000FE02068400840002060FFF70BFE0646FF
:1007300004E0FFF707FE801B022897D820684007D7
:10074000F7D42878C0065FD5002F0CD0E8690028C0
:1007500049D02068FF21013108432060FFF7F2FDF6
:1007600006462DE0E4E02068800502D5E86900280F
:10077000A7D06068072149038843696A084360601D
:100780006068298C0002000A090608436060686AF4
:10079000410B0120C003491C8840E16809060A0F8B
:1007A0009149895CC840914908600020FFF7ECFD41
:1007B000002817D128E0FFF7C5FD801B0228A3D829
:1007C00020688005F7D56068072149038843696A76
:1007D000084360606068298C0002000A090608432B
:1007E000606011E023E12168FF2001308143216036
:1007F000FFF7A8FD064604E0FFF7A4FD801B0228D2
:100800009BD820688005F7D42878794E000724D536
:1008100068690028306910D0012108433061FFF772
:1008200091FD009005E0FFF78DFD0099401A022828
:100830007ED830698007F6D50FE04008400030616F
:10084000FFF780FD009005E0FFF77CFD0099401A5E
:1008500002286DD830698007F6D42878400764D51F
:1008600000200290A06BC00006D4A06B01210907F4
:100870000843A063012002905E480168C90511D4B5
:100880000168821511430160FFF75CFD009005E0EF
:10089000FFF758FD0099401A642849D85548006868
:1008A000C005F5D5FF20AA680130824203D1316925
:1008B0000143316111E001218902002A07D005239B
:1008C0001B029A4203D132690A433261EFE732696F
:1008D00082433261306988433061A86800280ED0B5
:1008E000FFF730FD009006E0FFF72CFD0099411A5C
:1008F000414881421CD830698005F5D50DE0FFF7ED
:1009000021FD009006E0FFF71DFD0099411A3A48CD
:1009100081420DD830698005F5D40298002804D0B2
:10092000A16B012000078143A1632878800600E0C5
:100930007CE02ED53148A9694314002916D0A2685D
:1009400001210A43A260626B0A436263016A194390
:100950000162FFF7F7FC064604E0FFF7F3FC801B9B
:10096000022863D8A0688007F7D512E0A16849087B
:100970004900A160016A99430162FFF7E3FC064662
:1009800004E0FFF7DFFC801B02284FD8A068800737
:10099000F7D4A86A002866D00C2F4DD00126360661
:1009A0000228206805D0B0432060FFF7CBFC054645
:1009B0003EE0B0432060FFF7C5FC074604E0FFF7C8
:1009C000C1FCC01B022831D820688001F7D4296BF4
:1009D000E86AE2680843696BFD231B049A431143EC
:1009E00008430DE000100240CD1A00081C00002052
:1009F00040100240007000408813000000000140D9
:100A0000E060206830432060FFF79CFC054604E06E
:100A1000FFF798FC401B022808D820688001F7D512
:100A200021E0FFF78FFC401B022801D90320FEBD07
:100A300020688001F5D416E00128F8D0E068012193
:100A40000904EA6A014091420BD10F2189042A6B03
:100A50000140914205D1032189050840696B884214
:100A600001D00120FEBD0020FEBD0000094910B5E7
:100A7000401E884201D9012010BD074C606103214E
:100A8000081F00F073FB0020A061072020610020F8
:100A900010BD0000FFFFFF0000E000E0F0B50246DF
:100AA0002032137E012B15D00127177602235376AF
:100AB00005686C68AB687026B4430E6849682643C5
:100AC0008024A34319436E6000688160577600203C
:100AD0001076F0BD0220F0BD70B5040005D02546AB
:100AE0002035687E002802D006E0012070BD00207D
:100AF0002876204600F00AF802206876211D20683A
:100B000000F0D8FB01206876002070BD10B586B0DB
:100B1000044614216846FFF708FB0122216892076A
:100B2000184891421CD1826B01210A438263C26A38
:100B30000A43C262C06A0091084005900020022169
:100B40000290039001910491052069460007FFF788
:100B50002FFB002211460F20FFF74EFC0F200CE068
:100B6000094A91420BD1816B10221143816300220B
:100B700011461120FFF740FC1120FFF733FC06B0AF
:100B800010BD000000100240001000400268D36851
:100B900001210B43D360006882685207520F062A76
:100BA00002D002680A43026000207047F8B505468B
:100BB00004462035287E012817D001262E760220F3
:100BC0006876226890687727FF23B8431B02984312
:100BD00090600A68502A31D00EDC202A4BD006DC07
:100BE000002A48D0102A3AD145E00220F8BD302A28
:100BF00041D0402A33D136E0602A27D0702A12D063
:100C000001200003121A2AD0824228D1CB684A68F8
:100C10008968206800F087FB2068816801229203C0
:100C2000114381601BE0CB684A688968206800F046
:100C30007AFB216888683843886010E0CA68496890
:100C4000206800F083FB5021206806E0CA684968EC
:100C5000206800F0B3FB6021206800F06FFB6E7627
:100C600000202876F8BDCA684968206800F06EFB4D
:100C700040212068F1E711462068EEE77CB5054683
:100C8000007E012819D1052008210007FFF74CFB41
:100C90002F4C01266078002809D00021284600F05A
:100CA000D3F9A0606168884208D9411A0BE000219D
:100CB000284600F0C9F9606066707CBD884203D2A6
:100CC000244A511A0918E16060602349E06841181C
:100CD000632901D2E67002E0E1780029EDD01E49D7
:100CE000002564314218FF212C318A4201D2E5608F
:100CF00004E01A4A8018884200D2E660A07818A161
:100D0000401CA0706846E26800F086FB6946154802
:100D1000FFF716FA14A11348FFF712FAA07840075C
:100D200003D112A10F48FFF70BFAA0782028C4D1F5
:100D300000F03EFA00220E4B11460A4800F018FD62
:100D4000207000F06FFCA5700648E57005707CBD52
:100D500000000020FFFF0000B3FBFFFFCBF7FFFF09
:100D600025640000980400202F0000000A00000005
:100D700088180008F8B5064604462036307E0D4631
:100D800001283DD00120307602207076002A39D02B
:100D9000042A46D0082A57D02B68297B20689E4613
:100DA0008C466B68016A0122120391430162C1699A
:100DB000026A03273F02B9431B020B430F210903B9
:100DC0008B4361460907090C194305235B039A43CA
:100DD00073460A273B401B031343C161036220682B
:100DE000C169032292029143C1612068C169AA6866
:100DF00012021143C1610120707600203076F8BDE7
:100E00000220F8BDEB6806CD083D206800F0B0FA7E
:100E1000206882690C218A43826120688169AA68FE
:100E20000FE0EB6806CD083D206800F0DAFA206894
:100E30008269032189028A43826120688169AA68E4
:100E4000120211438161D6E788CD28792168844652
:100E5000086AFF22013290430862C8690A6A800862
:100E600080003843F027B84367463F073F0E0743EB
:100E70000520400282430A20034018021043CF613C
:100E800008622068C1690C229143C1612068C16970
:100E90002A68AEE770B5040005D025462035687E87
:100EA000002802D006E0012070BD002028762046F0
:100EB00000F00AF802206876211D206800F0FAF997
:100EC00001206876002070BD704710B502680446A6
:100ED000002906D0042907D0082919D00C2907D1E8
:100EE00019E0D068022301E0D06804231843D060E1
:100EF0000122206800F00AFA206881684907490F3A
:100F0000062903D00168012211430160002010BDB1
:100F1000D0680823EAE7D0681023E7E770B50446F5
:100F2000006801690025C9438907002915DBC168EC
:100F3000C943890711D4E91E016101202076206888
:100F400080698007204602D0FFF798FE04E000F099
:100F500078F8204600F076F8257620680169C943C4
:100F6000490717D4C168C943490713D40421C943A9
:100F7000016102202076206880698005800F20466C
:100F800002D0FFF77BFE04E000F05BF8204600F0A3
:100F900059F8257620680169C943090716D4C16844
:100FA000C943090712D40821C943016104202076EE
:100FB0002068C0698007204602D0FFF75FFE04E08A
:100FC00000F03FF8204600F03DF8257620680169E2
:100FD000C943C90617D4C168C943C90613D410212F
:100FE000C9430161082020762068C0698005800F10
:100FF000204602D0FFF742FE04E000F022F820462F
:1010000000F020F8257620680169C943C90708D196
:10101000C168C943C90704D1891E0161204600F097
:1010200012F820680169C943490609D4C168C94357
:10103000490605D44021C9430161204600F01AF851
:1010400070BD70477047704702460020002908D0E5
:10105000042909D008290AD00C2901D11068006C94
:1010600070471068406B70471068806B704710685D
:10107000C06B70477047FEE7F0B587B01421684633
:10108000FFF753F81848C16A01252943C162C16AB4
:1010900029400591C26A02210A43C262C06AFF2444
:1010A00008400526193436070590002221463046AF
:1010B000FFF742F90D4F002228213846FFF73CF98F
:1010C0000094002401950294694630460394FFF78A
:1010D0006FF82820009002946946019503943846E1
:1010E000FFF766F807B0F0BD0010024000040050A2
:1010F00010B58AB0002404940594069407940894CB
:1011000001211748099400940194029489070394DB
:1011100001600F2184604160046112494461C16033
:10112000FFF7DAFC01200003049004A90C48FFF744
:101130003DFD0B48FFF7AEFE089408A90848099446
:10114000FFF7ACFC022000900120019002940022E5
:10115000694603940248FFF70DFE0AB010BD000077
:1011600020040020FFFF0000704700008307FF22DB
:10117000DB0E9A408907090E994000280BDA000718
:10118000000F0838830808489B001818C369934368
:101190000B43C3617047830804489B001B18186801
:1011A000904308431860704700ED00E000E400E061
:1011B00010B50021084B0A460020C400E418625410
:1011C000401CC0B28028F8D3491CC9B20829F3D307
:1011D00000F028FA10BD0000200000207047704782
:1011E00010B5FFF7B5F810BD30B593B0382168469B
:1011F000FEF79BFF14210EA8FEF797FF0F4801682A
:101200000322D2029143C214891801600220009087
:10121000102001250024049003950A946846FFF7E6
:10122000E1F90F200E901094119400210F95129463
:101230000EA8FFF7E5F813B030BD000000700040C5
:1012400010480168821511430160C1680E4A1140BF
:10125000C16001680D4A1140016081684908490078
:10126000816001680122920491430160C168FD22FE
:1012700012049143C160002101610549C0038860E7
:1012800070470000001002400C40FF88F6FFF6FE99
:1012900000ED00E010B50248FFF740FE10BD000071
:1012A0002004002010B50248FFF738FE10BD0000F2
:1012B0005C04002070B5026801239B07114C124D9D
:1012C000984203D0A04201D0A84203D17026B24375
:1012D0004E683243984203D0A04201D0A84204D1C4
:1012E00003231B029A43CB681A4380239A430B695A
:1012F0001A4302608A68C262096881620121416101
:1013000070BD0000000801400014014010B5CB067C
:10131000DB0E0121046A99408C430462016A9A4001
:101320001143016210BD30B58468FF252D021B02F8
:101330001343AC430B432343836030BD8268702367
:101340009A430A4307210A438260704730B5036A13
:10135000046A6408640004628469F025AC431201E5
:1013600022430A24A3430B438261036230BD000081
:1013700070B5046A6408640004628469056A012621
:10138000B607B04205D00B4EB04202D00A4EB04272
:1013900002D1A408A40000E001221443F0229443E7
:1013A0001A07120E0A2322439D43194029438261E2
:1013B000016270BD000801400014014030B5036AAD
:1013C0001024A34303628469036A0F252D031203CB
:1013D000AC432243A024A343090119438261016263
:1013E00030BD70B5046A1025AC4304628569046A97
:1013F00003263602B54312022A430F252D031B078D
:101400001B0CAA431343A02209019443114021431A
:101410008361016270BD00000FB410B504A9074BD1
:1014200002AA039800F01CF8044602A9002000F06C
:10143000BFF8204610BC08BC04B01847B11500081E
:1014400002E008C8121F08C1002AFAD1704770478D
:10145000002001E001C1121F002AFBD170470000EB
:10146000FFB58DB00446002506E025280AD0109A65
:101470000F999047641C6D1C20780028F5D12846F0
:1014800011B0F0BD00270121484A009700E0074352
:10149000641C23780846203B98401042F7D12078FE
:1014A0002E2817D1042007436078641C2A280CD109
:1014B0000E98641C02C800910E900BE000990A225D
:1014C000514330394018641C00902078014630396F
:1014D0000929F3D920780028D1D0642808D06928B8
:1014E00006D075281ED0109A0F9990476D1C5BE0AE
:1014F0000A200E99019001C90E91002802DA40429B
:101500002D2102E0390504D52B216A4611720121F3
:1015100003E0F90704D02021F7E70BAE0B910DE0B3
:101520000021FAE70A200E99019001C90E91F7E710
:101530000199FEF7DDFD3031761E31700028F7D1BC
:1015400003A8801B20300190780701D5009801E0A6
:10155000012000900199884201DD401A00E000203E
:101560000027009006E002A8109AC05D0F999047EE
:101570006D1C7F1C0B988742F5DB04E0109A30202D
:101580000F9990476D1C0099481E00900029F5DCCA
:1015900005E03078109A761C0F9990476D1C0199E0
:1015A000481E01900029F4DC641C65E7092801004D
:1015B0000A68531C0B601070704700001CB5FEF7E2
:1015C000CFFEFFF711FEFFF757FD002412480094ED
:1015D00010490194016011498460416010494461DF
:1015E000C160FFF779FA009469460B480194FFF750
:1015F00055FAFFF77DFD00F05DF8074800213C3803
:10160000FFF763FC0448FFF7C1FA03483C3004705D
:10161000FEE70000001000405C0400207F3E000058
:101620008713000070B50E4E00242046B030C0B2C3
:1016300000F0EEF8022000F0EBF8102000F0E8F8DF
:101640000025E8008019005D00F000F96D1CEDB286
:10165000802DF6D3641CE4B2082CE6D370BD0000E4
:1016600020000020FFB55A789C7850436043C008A2
:1016700000218646E50817E074466418A446019CDC
:1016800000206418E6000A4C341909E00646564367
:10169000F61866443779029E3618A755401CC0B22A
:1016A0008542F3D8491CC9B29142E5D3FFBD000081
:1016B0002000002010B5AE2000F0AAF8022000F0B3
:1016C000A7F8102000F0A4F8402000F0A1F8812035
:1016D00000F09EF8CF2000F09BF8A12000F098F8D1
:1016E000C82000F095F8A62000F092F8A82000F09D
:1016F0008FF83F2000F08CF8D32000F089F800200C
:1017000000F086F8D52000F083F8802000F080F803
:10171000D92000F07DF8F12000F07AF8DA2000F00E
:1017200077F8122000F074F8DB2000F071F8402008
:1017300000F06EF8202000F06BF8022000F068F84E
:101740008D2000F065F8142000F062F8A42000F06D
:101750005FF8A62000F05CF8AF2000F059F8AF2049
:1017600000F056F8FFF724FD6420FEF70FFD10BDD2
:10177000FFB581B004981646477880780C4600255E
:10178000009017E00198E219415D08462038C0B288
:10179000802A04D3009A0024D2089219D6B20A29CA
:1017A00010D032462146049BFFF75CFFE019C4B21B
:1017B0006D1CEDB20198FEF7CFFCA842E2D820469E
:1017C00005B0F0BD00980024C0088019C6B2EFE74C
:1017D000F8B500240D4E05460727002208213046A3
:1017E000FEF7AAFD391B2846C840C207D20F2021A8
:1017F0003046FEF7A1FD012208213046FEF79CFD90
:10180000641CE4B2082CE8D3F8BD000000040050CA
:1018100070B5052406462407002210212046FEF755
:101820008BFDFF250135002229462046FEF784FD69
:101830003046FFF7CDFF012229462046FEF77CFD0A
:10184000012210212046FEF777FD70BD70B50524FA
:1018500006462407012210212046FEF76DFDFF25D4
:101860000135002229462046FEF766FD3046FFF787
:10187000AFFF012229462046FEF75EFD012210211E
:101880002046FEF759FD70BD00060820000000004C
:1018900000000000002F00000000070007000014F7
:1018A0007F147F1400242A7F2A1200231308646205
:1018B00000364955225000000503000000001C229C
:1018C0004100000041221C000014083E08140008DA
:1018D000083E0808000000A060000008080808088A
:1018E000000060600000002010080402003E514922
:1018F000453E0000427F40000042615149460021C0
:1019000041454B31001814127F10002745454539D9
:10191000003C4A4949300001710905030036494934
:10192000493600064949291E0000363600000000ED
:101930005636000000081422410000141414141438
:1019400000004122140800020151090600324959E1
:10195000513E007C1211127C007F49494936003EFD
:1019600041414122007F4141221C007F49494941B8
:10197000007F09090901003E4149497A007F0808B2
:10198000087F0000417F4100002040413F01007F6F
:1019900008142241007F40404040007F020C027F3B
:1019A000007F0408107F003E4141413E007F09094D
:1019B0000906003E4151215E007F09192946004673
:1019C000494949310001017F0101003F4040403F4A
:1019D000001F2040201F003F4038403F0063140894
:1019E000146300070870080700615149454300006F
:1019F0007F41410000552A552A55000041417F0092
:101A00000004020102040040404040400000010286
:101A10000400002054545478007F4844443800386F
:101A20004444442000384444487F003854545418F7
:101A300000087E0901020018A4A4A47C007F080409
:101A400004780000447D4000004080847D00007FD9
:101A5000102844000000417F4000007C04180478F6
:101A6000007C0804047800384444443800FC2424F2
:101A700024180018242418FC007C080404080048DA
:101A80005454542000043F444020003C4040207CFB
:101A9000001C2040201C003C4030403C00442810EA
:101AA0002844001CA0A0A07C004464544C440000C6
:101AB000087700000000007F0000000077080000A9
:101AC000001008100800141414141414000000006E
:101AD00000000000000102030406070809030406D1
:101AE000080C101820300000081B0008000000201F
:101AF0002000000040140008281B000820000020DF
:101B0000A8090000501400080000000000000000B8
:101B100000000000000000000100000004000000C0
:081B200000000000000020009D
:04000005080000C12E
:00000001FF
