:020000040800F2
:1000000008090020D5000008C9170008D716000805
:1000100000000000000000000000000000000000E0
:100020000000000000000000000000003F18000871
:1000300000000000000000003D1800084118000802
:10004000E7000008E7000008E7000008E7000008F4
:10005000E7000008E7000008E7000008E7000008E4
:10006000E7000008E7000008E7000008E7000008D4
:10007000E7000008E700000800000000F51800088D
:10008000000000000519000800000000000000004A
:10009000E700000800000000E7000008E700000893
:1000A000E7000008E7000008E7000008E700000894
:1000B000E7000008E700000800000000E700000873
:1000C0000348854600F010FB00480047351F000834
:1000D000080900200448804704480047FEE7FEE77F
:1000E000FEE7FEE7FEE7FEE7A1180008C1000008F2
:1000F00030B50B46014600202022012409E00D46C0
:10010000D5409D4205D31D469540491B2546954047
:1001100040191546521E002DF1DC30BDD2B201E06F
:100120000270401C491EFBD270470022F6E710B552
:1001300013460A4604461946FFF7F0FF204610BD55
:10014000421E5378521C002BFBD10B781370491CB4
:10015000521C002BF9D17047421C0178401C002929
:10016000FBD1801A70470000F0B50746084658409A
:1001700087B0C00F049048000E4659004008490857
:10018000BC1A884105D2384631461E4617460B46F2
:1001900002465800400810434CD0300D03904005F3
:1001A0005900400D490D0590401A0290402872DA1E
:1001B00018030121000B09050843019004980092DF
:1001C000002805D0019952420020884100920190F8
:1001D000029840210A1A0199009800F03BF905465F
:1001E0000C466B4607CB00F056F9C0197141039AD3
:1001F0000E0D0023D71756401A467A40164344D0B6
:10020000049A002A2DD0029A012A039A15DC1205BD
:10021000C01A914101263605001C7141D20F059E7E
:10022000D2070093019202962A46234600F053F922
:1002300007B0F0BD38463146FAE71605224A0F46A8
:10024000B218C01AB74101210905001C4F4100181E
:100250007F41114618187941E20F10436D1964412E
:1002600013E0E2076D0815436408C2071443039ABC
:1002700001261205C01A91413605001C7141CE07B6
:10028000400830434908C01851412A46234600F02F
:1002900015F9CDE7FFE7049801224000C117121AB3
:1002A00000238B4104983146C417381AA141EEE768
:1002B00030B40124E407634030BC55E730B4012476
:1002C000E407614030BC4FE70000E0FFF0B51FB429
:1002D00088B00B990998002448400999C00F49003B
:1002E00049080991C0070B990090490049080B91F2
:1002F00009990898A64608431CD00B990A98084308
:1003000018D0099801244000420D4800410D099879
:1003100024050003000B204309900B980003000BF9
:1003200020430B9050181C4940180022019014469D
:10033000104605E0002001460DB0F0BD032801DAAB
:10034000034600E003239C46C11A0AAE0AE05F00A0
:1003500008ADED5B4F00F75B7D430027AA187C4199
:10036000491C5B1E6145F2DD410004AB5A52210479
:10037000120C0A43240C401C0828DFDB0198029071
:100380000099704601910090059B049A0799069880
:1003900000F0A1F8D0E700000DFCFFFF0EB5054905
:1003A0000291002100910A460B46019100F093F85A
:1003B00003B000BD330400004A0009030123090B08
:1003C0001B051943094B10B5520D9A4201DA002062
:1003D00010BD064B34339A4203DC9A1A00F04AF8F7
:1003E00010BD03495118884010BD0000FF030000F4
:1003F000CDFBFFFFF0B51FB40646002082B00546D6
:100400004024019100901BE0019922460F4630469E
:1004100000F030F8049A059B801A994110D31046D9
:100420001946224600F016F8361A8F4101972246E7
:1004300001200021009F00F00DF838184D41009078
:100440002046641E0028DFDC019B009829463246C6
:1004500007B0F0BD10B5202A04DB0146203A9140D8
:10046000002010BD914020239C1A0346E34019430D
:10047000904010BD10B5202A04DB0846203AD04039
:10048000002110BD0B46D340D0402024A21A914039
:100490000843194610BD10B5202A06DBCB170846C5
:1004A000203A1041C1170B4306E00B461341D040E0
:1004B0002024A21A91400843194610BD10B5002B04
:1004C00008DA0024401C614192185B411A4301D1B3
:1004D0004008400010BDF0B51FB482B005460C00C6
:1004E00003D0084601F0DCFA02E001F0D9FA20302E
:1004F0000246009021462846FFF7ACFF049B059A70
:1005000004460F4618431143084314D018461043BD
:100510001BD0009840210A1A18460599FFF7AAFF38
:1005200005460E46009A05990498FFF793FF084385
:1005300005D0012004E02046394607B0F0BD002078
:10054000C11705430E432C43374300990E986305AA
:10055000401A7905E40A00220C43FD0A0A3002D54C
:1005600000200146E9E70105101969410C9C0D9D29
:1005700000196941FFF7A2FFDFE70000F0B50C4664
:100580005C4085B0E40FE40703944C000026640847
:1005900059009446490802460296224321D06246F9
:1005A0000A431ED06200570D4A000E032303550D67
:1005B000012402462C492405781B1B0B360B4018DE
:1005C00023432643614600901C46501AB44103D38E
:1005D0000098401C009002E0921800985B410028AF
:1005E00003DA0020014605B0F0BD00200121090515
:1005F0000746864611E064461D46141BB54106D3E6
:100600006546521BB341744607430C43A646CD07CB
:1006100040084908284392185B4105460D43EAD13A
:100620001046184313D060461946504071400843A5
:1006300006D06046101AB34106D20122002306E01C
:1006400000220123DB0702E00122D243531000986D
:1006500074460105381C6141029C039D00196941E3
:10066000FFF72CFFBFE70000FD03000070B54B0053
:100670005B0803430BD04B005C0D002633466542FC
:10068000B341D417AD1AA34102DB0020014670BD6F
:1006900012053018514170BD0EB5C217C10F504040
:1006A000CA0740180021054B0293019200910A46A7
:1006B0000B46FFF710FF03B000BD0000330400003D
:1006C00010B5002904DB0124E40740428C41214697
:1006D000002B04DB1C460123DB075242A341994255
:1006E00000D1904210BD0000064C0125064E05E0E9
:1006F000E36807CC2B430C3C98471034B442F7D343
:10070000FFF7E2FC382F0008582F0008FEB5002341
:100710001A461B1A8A4103DB0020014603B0F0BDD4
:100720004A000D0301212D0B0905520D0D43D10780
:1007300002D100186D41521E5110FF31FF310131BD
:10074000002704463E4638460097019102460121A3
:1007500000200905FFF78EFEC3197141F8183246D3
:1007600084468E464A4161462846611A904104D328
:100770006046241A954176461F46241900986D411B
:10078000401C00903428E1DDF91930467041091B06
:10079000A84103D20022D243134601E000221346AF
:1007A00001980105381C7141FFF788FEB6E700008B
:1007B0000848094942685318FF212C318B4201D265
:1007C000002104E0054BD2188A4201D201210170B8
:1007D000704700001800002017FCFFFFCBF7FFFF59
:1007E00070B5044600F0D0F80546601C02D00448FD
:1007F0000078241800F0C8F8401BA042FAD370BD5E
:1008000008000020FCB500230124A2E027462A4668
:100810009F403A406FD04D68012D05D0022D03D086
:10082000112D01D0122D16D185680326AC465D002E
:10083000AE46AE406546B543AC46CE687546AE4062
:1008400065462E43866046680D79BE43ED06ED0F82
:100850009D4035434560C6685F000325BD40AE46F8
:10086000AE4335468E68BE402E43C6604E68022EAB
:1008700001D0122E14D1DE08B60036180196366A61
:100880005D07B446EE0E0F25B54000966646AE43B2
:10089000B4460D69009EB54066462E43019D2E620A
:1008A00006687546AE430D79AD07AD0FBD403543C3
:1008B00005604D68ED004BD5294D6E6B26436E6388
:1008C0009E08284DB6007519AC46AD689E07360FD8
:1008D0000F27B740BD4305273F07B84201D1002786
:1008E00015E0214FB84201D1012710E01F4FB84257
:1008F00002D102270BE02BE01D4FB84201D10327A4
:1009000005E01C4FB84201D1052700E00627B7409B
:100910002F436546AF60184D2E684F689643FF031E
:1009200000D516432E606E684F689643BF0300D50E
:1009300016436E60AE684F689643FF0200D51643BB
:10094000AE60EE684F689643BF0200D51643EE6076
:100950005B1C0A681546DA4000D057E7FCBD000072
:100960000010024000000140000400500008005048
:10097000000C0050001C005000040140002A01D06F
:10098000816170478162704701488068704700004C
:100990000800002002488168027889188160704749
:1009A0000800002010B508480024016840221143C7
:1009B0000160204600F00AF8002801D0012401E07F
:1009C00000F026F8204610BD0020024070B5044615
:1009D0000D4D7D202978C000FFF78AFB01460B48AA
:1009E0000068FFF785FB00F063FB002809D1042CA9
:1009F00007D200222146401E00F020F800206C6043
:100A000070BD012070BD000008000020140000200F
:100A10000448416B012211434163816B020411437D
:100A20008163704700100240C106C90E0120884052
:100A3000014908607047000000E100E010B500F0D7
:100A4000C5FE10BDF8B50E4605007DD053480068C0
:100A5000C007C00FB0420AD2504801684908490097
:100A6000314301600068C007C00FB04271D12878DF
:100A70004B4C800705D5E068F0218843A9680843FE
:100A8000E0602878C00752D06868022817D0032891
:100A900018D02168012818D08905002959DAE168A1
:100AA000890889000143E160FFF76EFF6968074626
:100AB000022912D003291CD0012926D033E0216855
:100AC0008903EAE721688901E7E74907E5E7FFF7D6
:100AD0005BFFC11B3348814223D8E0680007800FC9
:100AE0000228F4D123E0FFF74FFFC11B2D488142BC
:100AF00017D8E0680007800F0328F4D117E0FFF74C
:100B000043FFC11B274881420BD8E0680007800FD4
:100B10000128F4D10BE0FFF737FFC11B21488142C8
:100B200001D90320F8BDE0680007800FF3D11B480E
:100B30000168C907C90FB1420DD9016849084900C8
:100B400031430160006800E003E0C007C00FB0421D
:100B500001D00120F8BD2878400706D5E0680721BC
:100B600009028843E9680843E0602878000707D550
:100B7000E0680721C90288432969C9000843E06089
:100B800000F016F8E168084A0906090F515CC840F0
:100B9000064908600020FFF719FFF8BD0020024059
:100BA00000100240881300008D2E00081400002061
:100BB00010B5184AD1680C20084004280BD008282A
:100BC00010D00C2810D050680004410F0120C00341
:100BD000491C884010BD1068C00601D50E4810BDE4
:100BE0000E4810BD0E4810BD88020E4B000F185C59
:100BF0000902D368890F491CDB0301D5084A05E0C7
:100C00001268D20601D5044A00E0044A5043FFF7B7
:100C10006FFA10BD0010024000093D000024F400EE
:100C200000127A009D2E0008FEB505007ED0FE4C15
:100C3000E7680C20E6680740012000040640287899
:100C4000C00747D0082F05D00C2F0AD1012000047F
:100C5000864206D1206880033CD568680028E5D02C
:100C600038E0012069680004814203D12168014312
:100C7000216011E0052301221B049204994221689E
:100C800002D111432160F1E78143216021680140D5
:100C90000091206890432060686800280DD0FFF71D
:100CA00073FE009005E0FFF76FFE0099401A64287C
:100CB0007AD820688003F6D50CE0FFF765FE009037
:100CC00005E0FFF761FE0099401A6428F0D820681B
:100CD0008003F6D42878800755D50923E868042FC7
:100CE0000DD00C2F01D1002E09D000283BD0216857
:100CF000994301432160FFF747FE064627E021683C
:100D0000490701D5002891D061681F221202914342
:100D10002A691202114361602168994301432160ED
:100D2000FFF746FFE16809060A0F00E0BBE1BF4993
:100D3000895CC840BE4908600020FFF747FE0028D4
:100D400072D120E0FFF720FE801B0228B0D8206877
:100D50004007F7D560681F21090288432969090205
:100D6000084360600FE02068400840002060FFF703
:100D70000BFE064604E0FFF707FE801B022897D80B
:100D800020684007F7D42878C0065FD5002F0CD024
:100D9000E869002849D02068FF210131084320601C
:100DA000FFF7F2FD06462DE0E4E02068800502D55D
:100DB000E8690028A7D06068072149038843696A69
:100DC000084360606068298C0002000A0906084335
:100DD0006060686A410B0120C003491C8840E168DB
:100DE00009060A0F9149895CC840914908600020B2
:100DF000FFF7ECFD002817D128E0FFF7C5FD801BA9
:100E00000228A3D820688005F7D560680721490328
:100E10008843696A084360606068298C0002000AA0
:100E200009060843606011E023E12168FF200130DA
:100E300081432160FFF7A8FD064604E0FFF7A4FD0B
:100E4000801B02289BD820688005F7D42878794E2B
:100E5000000724D568690028306910D001210843B3
:100E60003061FFF791FD009005E0FFF78DFD0099DF
:100E7000401A02287ED830698007F6D50FE0400876
:100E800040003061FFF780FD009005E0FFF77CFD3A
:100E90000099401A02286DD830698007F6D4287866
:100EA000400764D500200290A06BC00006D4A06B60
:100EB000012109070843A063012002905E480168F0
:100EC000C90511D40168821511430160FFF75CFD6B
:100ED000009005E0FFF758FD0099401A642849D8B2
:100EE00055480068C005F5D5FF20AA680130824248
:100EF00003D131690143316111E001218902002AE6
:100F000007D005231B029A4203D132690A4332619A
:100F1000EFE7326982433261306988433061A86803
:100F200000280ED0FFF730FD009006E0FFF72CFD03
:100F30000099411A414881421CD830698005F5D595
:100F40000DE0FFF721FD009006E0FFF71DFD009981
:100F5000411A3A4881420DD830698005F5D402988B
:100F6000002804D0A16B012000078143A1632878E9
:100F7000800600E07CE02ED53148A96943140029A1
:100F800016D0A26801210A43A260626B0A43626321
:100F9000016A19430162FFF7F7FC064604E0FFF718
:100FA000F3FC801B022863D8A0688007F7D512E005
:100FB000A16849084900A160016A99430162FFF7ED
:100FC000E3FC064604E0FFF7DFFC801B02284FD855
:100FD000A0688007F7D4A86A002866D00C2F4DD0EF
:100FE000012636060228206805D0B0432060FFF7AE
:100FF000CBFC05463EE0B0432060FFF7C5FC07464A
:1010000004E0FFF7C1FCC01B022831D82068800132
:10101000F7D4296BE86AE2680843696BFD231B0477
:101020009A43114308430DE0001002408D2E000842
:10103000140000204010024000700040881300009F
:1010400000000140E060206830432060FFF79CFC16
:10105000054604E0FFF798FC401B022808D82068EA
:101060008001F7D521E0FFF78FFC401B022801D952
:101070000320FEBD20688001F5D416E00128F8D0D9
:10108000E06801210904EA6A014091420BD10F2175
:1010900089042A6B0140914205D10321890508404A
:1010A000696B884201D00120FEBD0020FEBD00001A
:1010B000094910B5401E884201D9012010BD074CD6
:1010C00060610321081F00F081FB0020A061072060
:1010D0002061002010BD0000FFFFFF0000E000E0E5
:1010E000F0B502462032137E012B15D0012717766A
:1010F0000223537605686C68AB687026B4430E68AB
:10110000496826438024A34319436E6000688160C8
:10111000577600201076F0BD0220F0BD70B50400B7
:1011200005D025462035687E002802D006E0012043
:1011300070BD00202876204600F00AF8022068766C
:10114000211D206800F0E6FB01206876002070BDBC
:1011500010B586B0044614216846FEF7E6FF01226A
:1011600021689207184891421CD1826B01210A43E1
:101170008263C26A0A43C262C06A00910840059055
:1011800000200221029003900191049105206946FC
:101190000007FFF737FB002211460F20FFF74EFC38
:1011A0000F200CE0094A91420BD1816B10221143B0
:1011B0008163002211461120FFF740FC1120FFF748
:1011C00033FC06B010BD00000010024000100040CB
:1011D0000268D36801210B43D3600068826852071C
:1011E000520F062A02D002680A43026000207047AC
:1011F000F8B5054604462035287E012817D001267B
:101200002E7602206876226890687727FF23B843FD
:101210001B02984390600A68502A31D00EDC202AC5
:101220004BD006DC002A48D0102A3AD145E00220F3
:10123000F8BD302A41D0402A33D136E0602A27D089
:10124000702A12D001200003121A2AD0824228D11B
:10125000CB684A688968206800F095FB206881683F
:1012600001229203114381601BE0CB684A688968C0
:10127000206800F088FB216888683843886010E0A7
:10128000CA684968206800F091FB5021206806E098
:10129000CA684968206800F0C1FB6021206800F03E
:1012A0007DFB6E7600202876F8BDCA684968206804
:1012B00000F07CFB40212068F1E711462068EEE752
:1012C000F8B50746007E01281FD101F097FC384C85
:1012D00001256078374E002811D00021384600F0F3
:1012E000E3F9354F386000F013FE3868306033485A
:1012F000334900684018632808D2E57009E00021EE
:10130000384600F0D1F930606570F8BDE07800280B
:10131000FBD0FFF74DFAA0788007800FFFF73EF86B
:101320000B46024601210020890700F00DFF05460B
:1013300024480E460078FFF731F82A463346FEF778
:10134000C5FF05460E462079FFF728F82A463346A2
:10135000FEF70AFFFFF730F8C2B22271A07800252D
:10136000800700280DD1124817A1401D00F084FB12
:101370000F491648491DFEF7E3FE0D482571401D33
:101380000570A07820280FD100F042FA0022104BFF
:1013900011460E4800F0A8FE207000F0FFFDA57079
:1013A0000A48E57005706570A078401CA070F8BD13
:1013B0000000002020000020240000201C0000204D
:1013C000B3FBFFFF1800002025580000A4040020F4
:1013D000482C0008F8B5064604462036307E0D46F7
:1013E00001283DD00120307602207076002A39D0C5
:1013F000042A46D0082A57D02B68297B20689E46AD
:101400008C466B68016A0122120391430162C16933
:10141000026A03273F02B9431B020B430F21090352
:101420008B4361460907090C194305235B039A4363
:1014300073460A273B401B031343C16103622068C4
:10144000C169032292029143C1612068C169AA68FF
:1014500012021143C1610120707600203076F8BD80
:101460000220F8BDEB6806CD083D206800F0B0FA18
:10147000206882690C218A43826120688169AA6898
:101480000FE0EB6806CD083D206800F0DAFA20682E
:101490008269032189028A43826120688169AA687E
:1014A000120211438161D6E788CD287921688446EC
:1014B000086AFF22013290430862C8690A6A8008FC
:1014C00080003843F027B84367463F073F0E074385
:1014D0000520400282430A20034018021043CF61D6
:1014E00008622068C1690C229143C1612068C1690A
:1014F0002A68AEE770B5040005D025462035687E21
:10150000002802D006E0012070BD00202876204689
:1015100000F00AF802206876211D206800F0FAF930
:1015200001206876002070BD704710B5026804463F
:10153000002906D0042907D0082919D00C2907D181
:1015400019E0D068022301E0D06804231843D0607A
:101550000122206800F00AFA206881684907490FD3
:10156000062903D00168012211430160002010BD4B
:10157000D0680823EAE7D0681023E7E770B504468F
:10158000006801690025C9438907002915DBC16886
:10159000C943890711D4E91E016101202076206822
:1015A00080698007204602D0FFF78AFE04E000F041
:1015B00078F8204600F076F8257620680169C9435E
:1015C000490717D4C168C943490713D40421C94343
:1015D000016102202076206880698005800F204606
:1015E00002D0FFF76DFE04E000F05BF8204600F04B
:1015F00059F8257620680169C943090716D4C168DE
:10160000C943090712D40821C94301610420207687
:101610002068C0698007204602D0FFF751FE04E031
:1016200000F03FF8204600F03DF82576206801697B
:10163000C943C90617D4C168C943C90613D41021C8
:10164000C9430161082020762068C0698005800FA9
:10165000204602D0FFF734FE04E000F022F82046D6
:1016600000F020F8257620680169C943C90708D130
:10167000C168C943C90704D1891E0161204600F031
:1016800012F820680169C943490609D4C168C943F1
:10169000490605D44021C9430161204600F01AF8EB
:1016A00070BD70477047704702460020002908D07F
:1016B000042909D008290AD00C2901D11068006C2E
:1016C00070471068406B70471068806B70471068F7
:1016D000C06B70477047FEE7F0B587B014216846CD
:1016E000FEF723FD1848C16A01252943C162C16A7A
:1016F00029400591C26A02210A43C262C06AFF24DE
:101700000840052619343607059000222146304648
:10171000FFF734F90D4F002228213846FFF72EF944
:101720000094002401950294694630460394FFF723
:1017300069F8282000900294694601950394384680
:10174000FFF760F807B0F0BD001002400004005041
:1017500010B58AB000240494059406940794089464
:101760000121174809940094019402948907039475
:1017700001600F2184604160046112494461C160CD
:10178000FFF7CCFC01200003049004A90C48FFF7EC
:101790002FFD0B48FFF7AEFE089408A908480994EE
:1017A000FFF79EFC0220009001200190029400228D
:1017B000694603940248FFF70DFE0AB010BD000011
:1017C0002C040020FFFF0000704700008307FF2269
:1017D000DB0E9A408907090E994000280BDA0007B2
:1017E000000F0838830808489B001818C369934302
:1017F0000B43C3617047830804489B001B1818689B
:10180000904308431860704700ED00E000E400E0FA
:1018100010B50021084B0A460020C400E4186254A9
:10182000401CC0B28028F8D3491CC9B20829F3D3A0
:1018300000F0B4FB10BD00002C0000207047704782
:1018400010B5FFF7A7F810BD30B593B03821684642
:10185000FEF76BFC14210EA8FEF767FC0F48016829
:101860000322D2029143C214891801600220009021
:10187000102001250024049003950A946846FFF780
:10188000D3F90F200E901094119400210F9512940B
:101890000EA8FFF7D7F813B030BD0000007000406D
:1018A00010480168821511430160C1680E4A114059
:1018B000C16001680D4A1140016081684908490012
:1018C000816001680122920491430160C168FD2298
:1018D00012049143C160002101610549C003886081
:1018E00070470000001002400C40FF88F6FFF6FE33
:1018F00000ED00E010B50248FFF740FE10BD00000B
:101900002C04002010B50248FFF738FE10BD00007F
:101910006804002070B5026801239B07114C124D2A
:10192000984203D0A04201D0A84203D17026B2430E
:101930004E683243984203D0A04201D0A84204D15D
:1019400003231B029A43CB681A4380239A430B69F3
:101950001A4302608A68C26209688162012141619A
:1019600070BD0000000801400014014010B5CB0616
:10197000DB0E0121046A99408C430462016A9A409B
:101980001143016210BD30B58468FF252D021B0292
:101990001343AC430B432343836030BD8268702301
:1019A0009A430A4307210A438260704730B5036AAD
:1019B000046A6408640004628469F025AC4312017F
:1019C00022430A24A3430B438261036230BD00001B
:1019D00070B5046A6408640004628469056A0126BB
:1019E000B607B04205D00B4EB04202D00A4EB0420C
:1019F00002D1A408A40000E001221443F022944381
:101A00001A07120E0A2322439D431940294382617B
:101A1000016270BD000801400014014030B5036A46
:101A20001024A34303628469036A0F252D03120364
:101A3000AC432243A024A3430901194382610162FC
:101A400030BD70B5046A1025AC4304628569046A30
:101A500003263602B54312022A430F252D031B0726
:101A60001B0CAA431343A0220901944311402143B4
:101A70008361016270BD00000FB410B504A9074B6B
:101A800002AA039800F0D0F8044602A9002000F052
:101A900039FA204610BC08BC04B01847051F0008DE
:101AA0002021020C01D010211046020A01D010465C
:101AB0000839020901D01046091F820801D01046DA
:101AC000891E420801D0881E7047081A704700001E
:101AD0004900CA020243100000D004204A0D01D080
:101AE00001221043044A490D914201D102210843C9
:101AF000012800D105207047FF070000F8B5044613
:101B00004F1EC8000838211815461E460868496847
:101B10003A4606239A4310D02A463346FEF7D6FBB0
:101B20003A46D200083AA3181A687F1E5B68FEF78F
:101B30001BFB06223B469343EED1022F23D0042FFA
:101B400011D0062F2FD12A463346FEF7BFFBE36A9A
:101B5000A26AFEF709FB2A463346FEF7B7FB636A23
:101B6000226AFEF701FB2A463346FEF7AFFBE36924
:101B7000A269FEF7F9FA2A463346FEF7A7FB636926
:101B80002269FEF7F1FA2A463346FEF79FFBE36827
:101B9000A268FEF7E9FA2A463346FEF797FB636828
:101BA0002268FEF7E1FAF8BD002210B51346104690
:101BB0000149FEF7E3FC10BD0000F03F10B5FEF751
:101BC000D3FA10BD002210B5134610461146FEF799
:101BD000D5FC10BD10B50721024A00200907FEF709
:101BE00045FD10BD01030000034A10B50020110798
:101BF000FEF73CFD10BD000001FDFFFF02E008C83C
:101C0000121F08C1002AFAD170477047002001E076
:101C100001C1121F002AFBD1704700000149086072
:101C20007047000028000020FFB58FB00F46044623
:101C3000002606E025280AD0129A11999047641CC4
:101C4000761C20780028F5D1304613B0F0BD002571
:101C50000121A14A009500E00543641C2378084651
:101C6000203B98401042F7D120782E2815D104202F
:101C700005436078641C2A280AD101CF641C0090B7
:101C80000BE000990A22514330394018641C00903F
:101C90002078014630390929F3D920786C280ED0F4
:101CA00004DC4C2813D06A2812D104E074280ED02A
:101CB0007A280DD10BE001204005054307E0012102
:101CC000090562780D43824201D16D18641C641CC1
:101CD0002078864669284AD008DC0028B4D05828E5
:101CE0006DD0632810D0642808D140E070286BD0F4
:101CF000732812D0752860D0782860D0129A704668
:101D000011999047761CE5E0387869460872002002
:101D1000487202A80190012003E038680190002079
:101D2000C0433F1D69070CD5002500E06D1C0099DC
:101D30008D420FDA8542F9DB0199495D0029F5D121
:101D400008E0002500E06D1C8542FCDB0199495D3F
:101D50000029F8D1761907E0019801990078491C0B
:101D60000191129A119990476D1EF5D2B2E00A20A6
:101D7000029000216802400F039102280CD001CF8D
:101D8000C117844600290DDA6246084652420021F6
:101D9000814194462D2008E0FF1DFF08FF0003CF7E
:101DA0008446EFE7280504D52B206A4610740120ED
:101DB0003CE0E8073AD02020F7E70A2000E01020B6
:101DC00000210391029007E01020029000210420DE
:101DD00005430820039100906802400F022810D0AC
:101DE00001CF0021844600200D9028071FD57046A2
:101DF00070280CD0029A1020039B42401A430CD04A
:101E000015E0FF1DFF08FF0003CF8446EBE74020ED
:101E10006A46107401200D900CE06046084306D01D
:101E200030206A4610747046507402200D9070463F
:101E3000582804D029A001900DA80E900DE02CA0E8
:101E4000F9E76046039B029AFEF7D4FA019B8446A9
:101E50009B5C0E9A521E0E92137060460843F0D19E
:101E60000E9805A9081A20300190680701D500983E
:101E700001E0012000900199884203DD01460198AC
:101E8000081A00E000200025009006E004A8129A3D
:101E9000405D119990476D1C761C0D988542F5DBCD
:101EA00004E0129A302011999047761C0099481E40
:101EB00000900029F5DC08E00E980E990078491C86
:101EC0000E91129A11999047761C0199481E019023
:101ED0000029F1DC641CB4E60928010030313233FA
:101EE0003435363738396162636465660000000056
:101EF0003031323334353637383941424344454640
:101F0000000000000A68531C0B601070704700004E
:101F100006488268C168914201D9891A04E0914259
:101F200003D2034B9A1A51184160704718000020E1
:101F3000FFFF00001CB5FEF735FDFFF785FCFFF73E
:101F4000CBFB002412480094104901940160114910
:101F50008460416010494461C160FFF7DFF800947C
:101F600069460B480194FFF7BBF8FFF7F1FB00F05F
:101F70005DF8074800213C38FFF7D7FA0448FFF71F
:101F800027F903483C300470FEE7000000100040D1
:101F9000680400207F3E00008713000070B50E4EDD
:101FA00000242046B030C0B200F0ECFD022000F06A
:101FB000E9FD102000F0E6FD0025E8008019005D35
:101FC00000F0FEFD6D1CEDB2802DF6D3641CE4B272
:101FD000082CE6D370BD00002C000020FFB55A7815
:101FE0009C7850436043C00800218646E50817E00E
:101FF00074466418A446019C00206418E6000A4C4C
:10200000341909E006465643F61866443779029EAD
:102010003618A755401CC0B28542F3D8491CC9B236
:102020009142E5D3FFBD00002C00002010B5AE208A
:1020300000F0A8FD022000F0A5FD102000F0A2FD98
:10204000402000F09FFD812000F09CFDCF2000F09B
:1020500099FDA12000F096FDC82000F093FDA62078
:1020600000F090FDA82000F08DFD3F2000F08AFDDB
:10207000D32000F087FD002000F084FDD52000F083
:1020800081FD802000F07EFDD92000F07BFDF12055
:1020900000F078FDDA2000F075FD122000F072FDEE
:1020A000DB2000F06FFD402000F06CFD202000F0F0
:1020B00069FD022000F066FD8D2000F063FD142014
:1020C00000F060FDA42000F05DFDA62000F05AFDA8
:1020D000AF2000F057FDAF2000F054FDFFF798FB54
:1020E0006420FEF77DFB10BDFFB581B00498164655
:1020F000477880780C460025009017E00198E21997
:10210000415D08462038C0B2802A04D3009A0024DA
:10211000D2089219D6B20A2910D032462146049B21
:10212000FFF75CFFE019C4B26D1CEDB20198FEF739
:1021300013F8A842E2D8204605B0F0BD009800246C
:10214000C0088019C6B2EFE7F0B51FB496B0844658
:102150000C460246199D18980390490068006300D8
:10216000490840080193002A01D0012600E000261A
:102170009E19FE4BF6185B109E422BD36E00039FF8
:102180000296002F00D00127F719F84EF84BBE1920
:102190009E421FD3039E0346F64F334309D03B466E
:1021A0009C4201D1002A04D0019B002A05D00126BF
:1021B00004E0002039461BB0F0BD00269E19EE4B0E
:1021C0009E4207D8039F029E002F00D00127F619D8
:1021D0009E4207D92B4660462146189AFFF7EEFC2F
:1021E0001BB0F0BD0023002C29DAE44EB04226DA01
:1021F000E34EB04201DB022321E0DE4EB0421EDBA3
:10220000E04E070DBE19142E09DD3427BF1B039EB7
:10221000FE400196BE40039FBE420BD00FE0039FDD
:10222000002F0CD11427BF1B0646FE400196BE406E
:10223000864204D1019BDE07F60F02239B1B0E464C
:10224000164318D1002D16DA002C03D0022B01D032
:10225000012B06D00220FFF7E1FCFFF7A5FC1BB025
:10226000F0BD0220FFF7DAFCFFF79EFC0122D20747
:1022700051401BB0F0BD039E002E61D1BF4EB04255
:1022800020D1C148844201D1002A08D0B9488142F6
:1022900009DB002D10DB189829461BB0F0BD00208B
:1022A000B4491BB0F0BD002D06DA01222946D20741
:1022B000189851401BB0F0BDB4497944086849688A
:1022C0001BB0F0BDAB4FB84225D1002D1FDA00295D
:1022D00004D0B14212D1002A09D018E0002A72D1EC
:1022E000A649E20F0020D20711431BB0F0BD002029
:1022F000E20F0146D20711431BB0F0BDB14206DA2E
:10230000234600203946FEF739F91BB0F0BD1046D0
:1023100021461BB0F0BDB14212DA0126B607B54224
:1023200003D1234610461946FEE3994EB54207D124
:10233000261E05DB1046314600F062FC1BB0F0BDE6
:1023400067007F081646002A40D100290AD08B4A30
:10235000914229D1002C0EDD002D1CDB00201146FE
:102360001BB0F0BD022B16D0002C14D0012B12D1C3
:10237000002C14DB0FE0002C28DA002D09DB012BE8
:1023800003D000207D491BB0F0BD002081491BB067
:10239000F0BD012B03D0002001461BB0F0BD002092
:1023A0000121C9071BB0F0BD724A91420ED1002C29
:1023B00001DA002B17D0022B06D00020C043FEF715
:1023C0006BF91BB0F0BD90E20120F8E7E217521C58
:1023D00094461A4307D000220892664C62465B1E60
:1023E0001A4307D009E00120FFF718FCFFF7EAFBCA
:1023F0001BB0F0BD0022644C0892674A90427DDD1C
:10240000664B674A98421FDD914202DC002D05DBD6
:102410004DE05848814217DB002D48DD0220FFF7D0
:10242000FDFBFFF7D7FB05460E460022534B214626
:102430000898FDF74BFF084671004908C00FC00718
:10244000014328461BB0F0BD914215DA002D2EDA6B
:102450000220FFF7E3FBFFF7BDFB05460E46002217
:10246000464B21460898FDF731FF72005208C80F0D
:10247000C0070243114617E03E4B994223DD002D71
:1024800015DD0220FFF7CAFBFFF7A4FB05460E4649
:1024900000223A4B21460898FDF718FF08467100C4
:1024A0004908C00FC007014328461BB0F0BD0220F9
:1024B000FFF7B4FBFFF798FB49004908E20FD2078A
:1024C00011431BB0F0BD002230463946FDF7F0FE47
:1024D000012205460E46D243FEF7C8F8314A324B78
:1024E000FDF7ECFE2A463346FDF7F0FE0022284BAE
:1024F000FDF7E4FE07462A46334600E064E0039118
:1025000010461946FDF7E2FE3A46039BFDF7DEFE54
:102510000746032209915207244B28463146FDF70E
:10252000D5FE07910C90224A204B38460999FDF7B9
:10253000CDFE074601911F4A1F4B28463146FDF745
:10254000C5FE3A46019BFDF7B3FE07460B46024621
:10255000099107990C98FDF707FE00250E462846BD
:10256000079B0C9AFDF7A4FE3A4627E0FFFF1F00E9
:10257000FFFF0F000000F03F0000E0FF0000F07FD1
:102580000000404301FCFFFF0000F0BF720C0000A0
:102590000000E03F0000F0FF0000E0410000F043D9
:1025A000FFFFEF3F555555555555D53F4715F73F5B
:1025B000FE822B6544DF5DF80BAE543E099BFDF7B0
:1025C0007DFE02460B4652E1012500202D05A94261
:1025D00007DA352230463946FEF748F806463420F9
:1025E000C0430A151218FE48101803900803FD494D
:1025F000000B01430F46FC49884201DC002003E048
:10260000FA49884202DA0120119005E00020119079
:102610000398401C7F1B039011980597C200F44853
:102620000F927844801843680268394630460D930B
:102630000292FDF73DFE07910C9030460D9B029AE9
:102640000599FDF791FD02460B460020E549FDF78F
:1026500095FF09910490079B0C9AFDF737FE1290A5
:1026600000201090E3480D46784400680E90012148
:1026700078104907084311990D9B890440180121DE
:10268000C90447183946029A0E98FDF711FE3246E2
:10269000059BFDF713FE02460B4629461098FDF7F1
:1026A00015FE064602913B4629460E9A1098FDF704
:1026B0000DFE079B0C9AFDF701FE3246029BFDF7CB
:1026C000F7FD099B049AFDF701FE0591129A0A9005
:1026D0002B4610461946FDF7F9FD06460246C64848
:1026E0000F460B4606217844FFF708FA32463B4670
:1026F0000091049010461946FDF7E8FD009B049AEE
:10270000FDF7E4FD06460F462B461946129A10982F
:10271000FDF72AFD059B0A9AFDF7D8FD32463B4698
:10272000FDF722FD109A079104902B46104619469A
:10273000FDF7CCFDB14E0022334609910290FDF722
:1027400013FD079B049AFDF70FFD00200746024684
:1027500033460091FDF7ACFD099B029AFDF7A8FDF9
:10276000079B049AFDF7AAFD06460D913A462946B5
:10277000009B1098FDF7AAFD07910C902B46304660
:10278000129A0D99FDF7A2FD05460E463A46009BAA
:1027900005990A98FDF79AFD33462A46FDF7E4FCB1
:1027A00002460B460746099107990C98FDF7DCFC99
:1027B00000250E462846079B0C9AFDF779FD3A4600
:1027C000099BFDF77BFD07460722099152078C4BB9
:1027D00031462846FDF77AFD07910090894A884BDB
:1027E00038460999FDF772FD07460191864A874BE5
:1027F00031462846FDF76AFD3A46019BFDF7B4FCD9
:10280000834B7B440F9A9B181A685B68FDF7ACFCFE
:10281000029009910398FDF73FFF05910490099BF1
:10282000029A07990098FDF79FFC7A4B7B440F9A18
:102830009B181A685B6817460393FDF795FC059B88
:10284000049AFDF791FC0E462846059B049AFDF775
:102850002FFD3A46039BFDF72BFD079B009AFDF7E2
:1028600027FD099B029AFDF729FD02460B4619999F
:1028700000200C900F461898FDF728FD0291049057
:102880003B460C9A19991898FDF712FD2A463346D3
:10289000FDF71CFD029B049AFDF766FC09910E9062
:1028A0002A46334639460C98FDF710FD06460F467A
:1028B000099B0E9AFDF758FC574A0D46914220DBC2
:1028C0005242AA18024310D132463B46FDF7F0FCB3
:1028D00004900391514A524B09990E98FDF744FC1C
:1028E000039B049AFDF7ECFE1ED20220FFF796F937
:1028F000FFF770F949004908E20FD20711431BB0F6
:10290000F0BD6A00474B52089A420DD3464AAA18B6
:10291000024300D0CBE532463B46FDF7C9FC099B9C
:102920000E9AFDF7CDFEF5D96800002340082C492A
:102930000393020D3D4B5218984223DD0120000500
:10294000521CD04042195000400D4018384979447B
:10295000096813468C463749C1408B431203012155
:10296000120B090551181422101AC1400391002DB1
:1029700001DA48420390624630463946FDF798FC3A
:1029800006460F4632463B4609990E98FDF7ECFB8A
:1029900000252A46284B28460591FDF797FC07910C
:1029A0000C90264A264B28460599FDF78FFC00918E
:1029B000029032463B4628460599FDF779FC099B73
:1029C0000E9AFDF77BFC1F4A1F4BFDF77FFC009B17
:1029D000029AFDF7C9FB07460B460246099135E00E
:1029E00001FCFFFF0000F03F8E9803007AB60B0059
:1029F00082080000C4080000EE0700000000084044
:102A000009C7EE3FFD033ADCF5015B14E02F3EBE43
:102A1000C20600008806000000009040FE822B6580
:102A20004715973C00CC904000346F3F0000E03FDA
:102A3000DE050000FFFF0F00432EE63F396CA80CB7
:102A4000615C20BEEF39FAFE422EE63F07990C98F2
:102A5000FDF78AFB05460E46079B0C9AFDF728FCFE
:102A60003A46099BFDF72AFC09912A4633460E9007
:102A700010461946FDF72AFC074602462F480B462A
:102A8000059105217844FFF739F83A46059BFDF793
:102A90001DFC2A463346FDF711FC074601912846E6
:102AA0003146099B0E9AFDF711FC099B0E9AFDF722
:102AB0005BFB012304910C9000229B07384601998F
:102AC000FDF7F6FB05910E903A4628463146019BEC
:102AD000FDF7FCFB059B0E9AFDF750FD049B0C9A3D
:102AE000FDF7E6FB2A463346FDF7E2FB0022144BD6
:102AF000FDF7E4FB064603980D460005411909154C
:102B0000002912DC30462946039AFDF7AFFDFEF797
:102B1000DFFF042801D1FFF767F830462946039A02
:102B2000FDF7A4FD064601E004E029180B463246F5
:102B300021460898FDF7CAFB1BB0F0BD80040000D9
:102B40000000F03FF8B500240D4E0546072700228F
:102B500008213046FDF712FF391B2846C840C2073E
:102B6000D20F20213046FDF709FF0122082130460F
:102B7000FDF704FF641CE4B2082CE8D3F8BD0000A4
:102B80000004005070B505240646240700221021D9
:102B90002046FDF7F3FEFF25013500222946204699
:102BA000FDF7ECFE3046FFF7CDFF01222946204617
:102BB000FDF7E4FE012210212046FDF7DFFE70BD87
:102BC00070B5052406462407012210212046FDF792
:102BD000D5FEFF250135002229462046FDF7CEFE11
:102BE0003046FFF7AFFF012229462046FDF7C6FE1B
:102BF000012210212046FDF7C1FE70BD7047000084
:102C0000F8B506460C46FDF781FD051E0F4600D0BF
:102C10000120014349000B484908411AC90F0DD052
:102C2000002E01D0012100E000210C436100490881
:102C3000401AC00F02D10120FEF7F0FF28463946A6
:102C4000F8BD00000000F07F000608200000000032
:102C500000000000002F0000000007000700001423
:102C60007F147F1400242A7F2A1200231308646231
:102C700000364955225000000503000000001C22C8
:102C80004100000041221C000014083E0814000806
:102C9000083E0808000000A06000000808080808B6
:102CA000000060600000002010080402003E51494E
:102CB000453E0000427F40000042615149460021EC
:102CC00041454B31001814127F1000274545453906
:102CD000003C4A4949300001710905030036494961
:102CE000493600064949291E00003636000000001A
:102CF0005636000000081422410000141414141465
:102D0000000041221408000201510906003249590D
:102D1000513E007C1211127C007F49494936003E29
:102D200041414122007F4141221C007F49494941E4
:102D3000007F09090901003E4149497A007F0808DE
:102D4000087F0000417F4100002040413F01007F9B
:102D500008142241007F40404040007F020C027F67
:102D6000007F0408107F003E4141413E007F090979
:102D70000906003E4151215E007F0919294600469F
:102D8000494949310001017F0101003F4040403F76
:102D9000001F2040201F003F4038403F00631408C0
:102DA000146300070870080700615149454300009B
:102DB0007F41410000552A552A55000041417F00BE
:102DC00000040201020400404040404000000102B3
:102DD0000400002054545478007F4844443800389C
:102DE0004444442000384444487F00385454541824
:102DF00000087E0901020018A4A4A47C007F080436
:102E000004780000447D4000004080847D00007F05
:102E1000102844000000417F4000007C0418047822
:102E2000007C0804047800384444443800FC24241E
:102E300024180018242418FC007C08040408004806
:102E40005454542000043F444020003C4040207C27
:102E5000001C2040201C003C4030403C0044281016
:102E60002844001CA0A0A07C004464544C440000F2
:102E7000087700000000007F0000000077080000D5
:102E8000001008100800141414141414000000009A
:102E900000000000000102030406070809030406FD
:102EA000080C101820300000000000000000F03F67
:102EB000000000000000F83F0000000000000000DB
:102EC0000000004003B8E23F0000000000000000E6
:102ED00006D0CF43EBFD4C3E033333333333E33F74
:102EE000FFAB6FDBB66DDB3F4D268F515555D53FA0
:102EF00001411DA96074D13F65DBC9934A86CD3F6E
:102F0000EF4E454A287ECA3F3E5555555555C53F5B
:102F100093BDBE166CC166BF2CDE25AF6A56113F4D
:102F2000F16BD2C541BDBBBED0A4BE726937663E4F
:102F30000000000000000000582F000800000020E2
:102F40002C000000FC1B0008842F00082C0000202F
:102F5000DC0800000C1C000800000000000000005D
:102F6000010000000400000000000000000020003C
:102F70000000000000000000000000000000000051
:042F8000000000004D
:04000005080000C12E
:00000001FF
