:020000040800F2
:10000000C8090020D5000008591100086710000831
:1000100000000000000000000000000000000000E0
:10002000000000000000000000000000CF110008E8
:100030000000000000000000CD110008D1110008F0
:10004000E7000008E7000008E7000008E7000008F4
:10005000E7000008E7000008E7000008E7000008E4
:10006000E7000008E7000008E7000008E7000008D4
:10007000E7000008E7000008000000008512000803
:1000800000000000951200080000000000000000C1
:10009000E700000800000000E7000008E700000893
:1000A000E7000008E7000008E7000008E700000894
:1000B000E7000008E700000800000000E700000873
:1000C0000348854600F050F800480047AD17000887
:1000D000C80900200448804704480047FEE7FEE7BF
:1000E000FEE7FEE7FEE7FEE731120008C100000868
:1000F00030B50B46014600202022012409E00D46C0
:10010000D5409D4205D31D469540491B2546954047
:1001100040191546521E002DF1DC30BDD2B201E06F
:100120000270401C491EFBD270470022F6E710B552
:1001300013460A4604461946FFF7F0FF204610BD55
:10014000421E5378521C002BFBD10B781370491CB4
:10015000521C002BF9D17047421C0178401C002929
:10016000FBD1801A70470000064C0125064E05E0C1
:10017000E36807CC2B430C3C98471034B442F7D3C8
:10018000FFF7A2FFD01C0008F01C000870B5044661
:1001900000F0D8F80546601C02D004480078241806
:1001A00000F0D0F8401BA042FAD370BD1000002030
:1001B000FCB500230124A2E027462A469F403A408E
:1001C0006FD04D68012D05D0022D03D0112D01D027
:1001D000122D16D185680326AC465D00AE46AE40B2
:1001E0006546B543AC46CE687546AE4065462E437F
:1001F000866046680D79BE43ED06ED0F9D403543A0
:100200004560C6685F000325BD40AE46AE43354637
:100210008E68BE402E43C6604E68022E01D0122E5C
:1002200014D1DE08B60036180196366A5D07B4466A
:10023000EE0E0F25B54000966646AE43B4460D69F6
:10024000009EB54066462E43019D2E6206687546A7
:10025000AE430D79AD07AD0FBD40354305604D6828
:10026000ED004BD5294D6E6B26436E639E08284DDD
:10027000B6007519AC46AD689E07360F0F27B7401C
:10028000BD4305273F07B84201D1002715E0214FA4
:10029000B84201D1012710E01F4FB84202D1022716
:1002A0000BE02BE01D4FB84201D1032705E01C4FA6
:1002B000B84201D1052700E00627B7402F43654625
:1002C000AF60184D2E684F689643FF0300D5164364
:1002D0002E606E684F689643BF0300D516436E606C
:1002E000AE684F689643FF0200D51643AE60EE68D5
:1002F0004F689643BF0200D51643EE605B1C0A6848
:100300001546DA4000D057E7FCBD0000001002405F
:10031000000001400004005000080050000C005094
:10032000001C005000040140426913460B401B04AE
:1003300091430B4383617047002A01D0816170476C
:1003400081627047014880687047000010000020FB
:100350000248816802788918816070471000002087
:1003600010B508480024016840221143016020466E
:1003700000F00AF8002801D0012401E000F026F87E
:10038000204610BD0020024070B504460D4D7D2072
:100390002978C000FFF7ACFE01460B480068FFF764
:1003A000A7FE00F063FB002809D1042C07D200222D
:1003B0002146401E00F020F800206C6070BD012036
:1003C00070BD0000100000201C0000200448416B9C
:1003D000012211434163816B020411438163704721
:1003E00000100240C106C90E012088400149086082
:1003F0007047000000E100E010B500F0AFFE10BD56
:10040000F8B50E4605007DD053480068C007C00F00
:10041000B0420AD25048016849084900314301609E
:100420000068C007C00FB04271D128784B4C8007DC
:1004300005D5E068F0218843A9680843E060287882
:10044000C00752D06868022817D0032818D0216846
:10045000012818D08905002959DAE168890889003E
:100460000143E160FFF76EFF69680746022912D079
:1004700003291CD0012926D033E021688903EAE74B
:1004800021688901E7E74907E5E7FFF75BFFC11B43
:100490003348814223D8E0680007800F0228F4D156
:1004A00023E0FFF74FFFC11B2D48814217D8E068BA
:1004B0000007800F0328F4D117E0FFF743FFC11BAB
:1004C000274881420BD8E0680007800F0128F4D14B
:1004D0000BE0FFF737FFC11B2148814201D9032000
:1004E000F8BDE0680007800FF3D11B480168C90719
:1004F000C90FB1420DD90168490849003143016073
:10050000006800E003E0C007C00FB04201D0012046
:10051000F8BD2878400706D5E0680721090288431E
:10052000E9680843E0602878000707D5E0680721FC
:10053000C90288432969C9000843E06000F016F841
:10054000E168084A0906090F515CC840064908607D
:100550000020FFF719FFF8BD002002400010024004
:1005600088130000B51C00081C00002010B5184AB4
:10057000D1680C20084004280BD0082810D00C2883
:1005800010D050680004410F0120C003491C88406E
:1005900010BD1068C00601D50E4810BD0E4810BD34
:1005A0000E4810BD88020E4B000F185C0902D3687C
:1005B000890F491CDB0301D5084A05E01268D20601
:1005C00001D5044A00E0044A5043FFF791FD10BDF5
:1005D0000010024000093D000024F40000127A00DF
:1005E000C51C0008FEB505007ED0FE4CE7680C2057
:1005F000E66807400120000406402878C00747D07D
:10060000082F05D00C2F0AD101200004864206D104
:10061000206880033CD568680028E5D038E00120D8
:1006200069680004814203D121680143216011E01F
:10063000052301221B0492049942216802D111432F
:100640002160F1E781432160216801400091206829
:1006500090432060686800280DD0FFF773FE00907B
:1006600005E0FFF76FFE0099401A64287AD82068E9
:100670008003F6D50CE0FFF765FE009005E0FFF77C
:1006800061FE0099401A6428F0D820688003F6D4EF
:100690002878800755D50923E868042F0DD00C2F42
:1006A00001D1002E09D000283BD021689943014395
:1006B0002160FFF747FE064627E02168490701D57C
:1006C000002891D061681F22120291432A69120208
:1006D000114361602168994301432160FFF746FFA0
:1006E000E16809060A0F00E0BBE1BF49895CC84028
:1006F000BE4908600020FFF747FE002872D120E0C5
:10070000FFF720FE801B0228B0D820684007F7D5ED
:1007100060681F2109028843296909020843606053
:100720000FE02068400840002060FFF70BFE0646FF
:1007300004E0FFF707FE801B022897D820684007D7
:10074000F7D42878C0065FD5002F0CD0E8690028C0
:1007500049D02068FF21013108432060FFF7F2FDF6
:1007600006462DE0E4E02068800502D5E86900280F
:10077000A7D06068072149038843696A084360601D
:100780006068298C0002000A090608436060686AF4
:10079000410B0120C003491C8840E16809060A0F8B
:1007A0009149895CC840914908600020FFF7ECFD41
:1007B000002817D128E0FFF7C5FD801B0228A3D829
:1007C00020688005F7D56068072149038843696A76
:1007D000084360606068298C0002000A090608432B
:1007E000606011E023E12168FF2001308143216036
:1007F000FFF7A8FD064604E0FFF7A4FD801B0228D2
:100800009BD820688005F7D42878794E000724D536
:1008100068690028306910D0012108433061FFF772
:1008200091FD009005E0FFF78DFD0099401A022828
:100830007ED830698007F6D50FE04008400030616F
:10084000FFF780FD009005E0FFF77CFD0099401A5E
:1008500002286DD830698007F6D42878400764D51F
:1008600000200290A06BC00006D4A06B01210907F4
:100870000843A063012002905E480168C90511D4B5
:100880000168821511430160FFF75CFD009005E0EF
:10089000FFF758FD0099401A642849D85548006868
:1008A000C005F5D5FF20AA680130824203D1316925
:1008B0000143316111E001218902002A07D005239B
:1008C0001B029A4203D132690A433261EFE732696F
:1008D00082433261306988433061A86800280ED0B5
:1008E000FFF730FD009006E0FFF72CFD0099411A5C
:1008F000414881421CD830698005F5D50DE0FFF7ED
:1009000021FD009006E0FFF71DFD0099411A3A48CD
:1009100081420DD830698005F5D40298002804D0B2
:10092000A16B012000078143A1632878800600E0C5
:100930007CE02ED53148A9694314002916D0A2685D
:1009400001210A43A260626B0A436263016A194390
:100950000162FFF7F7FC064604E0FFF7F3FC801B9B
:10096000022863D8A0688007F7D512E0A16849087B
:100970004900A160016A99430162FFF7E3FC064662
:1009800004E0FFF7DFFC801B02284FD8A068800737
:10099000F7D4A86A002866D00C2F4DD00126360661
:1009A0000228206805D0B0432060FFF7CBFC054645
:1009B0003EE0B0432060FFF7C5FC074604E0FFF7C8
:1009C000C1FCC01B022831D820688001F7D4296BF4
:1009D000E86AE2680843696BFD231B049A431143EC
:1009E00008430DE000100240B51C00081C00002068
:1009F00040100240007000408813000000000140D9
:100A0000E060206830432060FFF79CFC054604E06E
:100A1000FFF798FC401B022808D820688001F7D512
:100A200021E0FFF78FFC401B022801D90320FEBD07
:100A300020688001F5D416E00128F8D0E068012193
:100A40000904EA6A014091420BD10F2189042A6B03
:100A50000140914205D1032189050840696B884214
:100A600001D00120FEBD0020FEBD0000094910B5E7
:100A7000401E884201D9012010BD074C606103214E
:100A8000081F00F06BFB0020A06107202061002000
:100A900010BD0000FFFFFF0000E000E0F0B50246DF
:100AA0002032137E012B15D00127177602235376AF
:100AB00005686C68AB687026B4430E6849682643C5
:100AC0008024A34319436E6000688160577600203C
:100AD0001076F0BD0220F0BD70B5040005D02546AB
:100AE0002035687E002802D006E0012070BD00207D
:100AF0002876204600F00AF802206876211D20683A
:100B000000F0D0FB01206876002070BD10B586B0E3
:100B1000044614216846FFF708FB0122216892076A
:100B2000184891421CD1826B01210A438263C26A38
:100B30000A43C262C06A0091084005900020022169
:100B40000290039001910491052069460007FFF788
:100B50002FFB002211460F20FFF74EFC0F200CE068
:100B6000094A91420BD1816B10221143816300220B
:100B700011461120FFF740FC1120FFF733FC06B0AF
:100B800010BD000000100240001000400268D36851
:100B900001210B43D360006882685207520F062A76
:100BA00002D002680A43026000207047F8B505468B
:100BB00004462035287E012817D001262E760220F3
:100BC0006876226890687727FF23B8431B02984312
:100BD00090600A68502A31D00EDC202A4BD006DC07
:100BE000002A48D0102A3AD145E00220F8BD302A28
:100BF00041D0402A33D136E0602A27D0702A12D063
:100C000001200003121A2AD0824228D1CB684A68F8
:100C10008968206800F07FFB2068816801229203C8
:100C2000114381601BE0CB684A688968206800F046
:100C300072FB216888683843886010E0CA68496898
:100C4000206800F07BFB5021206806E0CA684968F4
:100C5000206800F0ABFB6021206800F067FB6E7637
:100C600000202876F8BDCA684968206800F066FB55
:100C700040212068F1E711462068EEE77CB5064682
:100C8000007E01284DD1052008210007FFF74CFB0D
:100C90002B4C01256078002809D00021304600F057
:100CA000CBF9E060A168884208D9411A0CE0002124
:100CB000304600F0C1F9A060657007E0884204D2B8
:100CC0000022D243511A0918A180A060A0881D49B2
:100CD000FF2241182C32914201D2E57002E0E17806
:100CE00000291ED00A21FFF703FA024616A1684622
:100CF00000F08AFB69461648FFF722FA15A114484E
:100D0000FFF71EFAA078144B401CC0B2A0701E283A
:100D100008D00022114611A000F01EFE207000F045
:100D200075FD7CBD00221146094800F015FE2070BB
:100D300000F06CFD0020A0700549E07008707CBDDB
:100D4000000000204FFBFFFF25303364000000004F
:100D5000980400202F000000701A00086E6F7420A5
:100D600079657400F8B5064604462036307E0D4697
:100D700001283DD00120307602207076002A39D03B
:100D8000042A46D0082A57D02B68297B20689E4623
:100D90008C466B68016A0122120391430162C169AA
:100DA000026A03273F02B9431B020B430F210903C9
:100DB0008B4361460907090C194305235B039A43DA
:100DC00073460A273B401B031343C161036220683B
:100DD000C169032292029143C1612068C169AA6876
:100DE00012021143C1610120707600203076F8BDF7
:100DF0000220F8BDEB6806CD083D206800F0B0FA8F
:100E0000206882690C218A43826120688169AA680E
:100E10000FE0EB6806CD083D206800F0DAFA2068A4
:100E20008269032189028A43826120688169AA68F4
:100E3000120211438161D6E788CD28792168844662
:100E4000086AFF22013290430862C8690A6A800872
:100E500080003843F027B84367463F073F0E0743FB
:100E60000520400282430A20034018021043CF614C
:100E700008622068C1690C229143C1612068C16980
:100E80002A68AEE770B5040005D025462035687E97
:100E9000002802D006E0012070BD00202876204600
:100EA00000F00AF802206876211D206800F0FAF9A7
:100EB00001206876002070BD704710B502680446B6
:100EC000002906D0042907D0082919D00C2907D1F8
:100ED00019E0D068022301E0D06804231843D060F1
:100EE0000122206800F00AFA206881684907490F4A
:100EF000062903D00168012211430160002010BDC2
:100F0000D0680823EAE7D0681023E7E770B5044605
:100F1000006801690025C9438907002915DBC168FC
:100F2000C943890711D4E91E016101202076206898
:100F300080698007204602D0FFF7A0FE04E000F0A1
:100F400078F8204600F076F8257620680169C943D4
:100F5000490717D4C168C943490713D40421C943B9
:100F6000016102202076206880698005800F20467C
:100F700002D0FFF783FE04E000F05BF8204600F0AB
:100F800059F8257620680169C943090716D4C16854
:100F9000C943090712D40821C943016104202076FE
:100FA0002068C0698007204602D0FFF767FE04E092
:100FB00000F03FF8204600F03DF8257620680169F2
:100FC000C943C90617D4C168C943C90613D410213F
:100FD000C9430161082020762068C0698005800F20
:100FE000204602D0FFF74AFE04E000F022F8204637
:100FF00000F020F8257620680169C943C90708D1A7
:10100000C168C943C90704D1891E0161204600F0A7
:1010100012F820680169C943490609D4C168C94367
:10102000490605D44021C9430161204600F01AF861
:1010300070BD70477047704702460020002908D0F5
:10104000042909D008290AD00C2901D11068006CA4
:1010500070471068406B70471068806B704710686D
:10106000C06B70477047FEE7F0B587B01421684643
:10107000FFF75BF81848C16A01252943C162C16ABC
:1010800029400591C26A02210A43C262C06AFF2454
:1010900008400526193436070590002221463046BF
:1010A000FFF74AF90D4F002228213846FFF744F98F
:1010B0000094002401950294694630460394FFF79A
:1010C00077F82820009002946946019503943846E9
:1010D000FFF76EF807B0F0BD0010024000040050AA
:1010E00010B58AB0002404940594069407940894DB
:1010F00001211748099400940194029489070394EC
:1011000001600F2184604160046112494461C16043
:10111000FFF7E2FC01200003049004A90C48FFF74C
:1011200045FD0B48FFF7AEFE089408A9084809944E
:10113000FFF7B4FC022000900120019002940022ED
:10114000694603940248FFF70DFE0AB010BD000087
:1011500020040020FFFF0000704700008307FF22EB
:10116000DB0E9A408907090E994000280BDA000728
:10117000000F0838830808489B001818C369934378
:101180000B43C3617047830804489B001B18186811
:10119000904308431860704700ED00E000E400E071
:1011A00010B50021084B0A460020C400E418625420
:1011B000401CC0B28028F8D3491CC9B20829F3D317
:1011C00000F024FB10BD0000200000207047704795
:1011D00010B5FFF7BDF810BD30B593B038216846A3
:1011E000FEF7A3FF14210EA8FEF79FFF0F4801682A
:1011F0000322D2029143C214891801600220009098
:10120000102001250024049003950A946846FFF7F6
:10121000E9F90F200E901094119400210F9512946B
:101220000EA8FFF7EDF813B030BD000000700040CD
:1012300010480168821511430160C1680E4A1140CF
:10124000C16001680D4A1140016081684908490088
:10125000816001680122920491430160C168FD220E
:1012600012049143C160002101610549C0038860F7
:1012700070470000001002400C40FF88F6FFF6FEA9
:1012800000ED00E010B50248FFF740FE10BD000081
:101290002004002010B50248FFF738FE10BD000002
:1012A0005C04002070B5026801239B07114C124DAD
:1012B000984203D0A04201D0A84203D17026B24385
:1012C0004E683243984203D0A04201D0A84204D1D4
:1012D00003231B029A43CB681A4380239A430B696A
:1012E0001A4302608A68C262096881620121416111
:1012F00070BD0000000801400014014010B5CB068D
:10130000DB0E0121046A99408C430462016A9A4011
:101310001143016210BD30B58468FF252D021B0208
:101320001343AC430B432343836030BD8268702377
:101330009A430A4307210A438260704730B5036A23
:10134000046A6408640004628469F025AC431201F5
:1013500022430A24A3430B438261036230BD000091
:1013600070B5046A6408640004628469056A012631
:10137000B607B04205D00B4EB04202D00A4EB04282
:1013800002D1A408A40000E001221443F0229443F7
:101390001A07120E0A2322439D43194029438261F2
:1013A000016270BD000801400014014030B5036ABD
:1013B0001024A34303628469036A0F252D031203DB
:1013C000AC432243A024A343090119438261016273
:1013D00030BD70B5046A1025AC4304628569046AA7
:1013E00003263602B54312022A430F252D031B079D
:1013F0001B0CAA431343A02209019443114021432B
:101400008361016270BD00000FB410B504A9074BE1
:1014100002AA039800F01CF8044602A9002000F07C
:10142000BFF9204610BC08BC04B01847A11700083B
:1014300002E008C8121F08C1002AFAD1704770479D
:10144000002001E001C1121F002AFBD170470000FB
:10145000FFB58FB00546002606E025280AD0129A6F
:10146000119990476D1C761C28780028F5D13046DC
:1014700013B0F0BD002402940121B54A009400E0AD
:1014800004436D1C2B780846203B98401042F7D14E
:1014900028782A280ED002222878014630390929D6
:1014A00016D802990A2359433039401814436D1C49
:1014B0000290F1E7109802C802911090002904DA16
:1014C00001204003044348420290022004436D1C63
:1014D00028782E2817D10420044368786D1C2A2808
:1014E0000CD110986D1C02C8009110900BE000996F
:1014F0000A225143303940186D1C0090287801466B
:1015000030390929F3D928786C2810D006DC4C280A
:101510001AD068280ED06A2817D104E0742813D096
:101520007A2812D110E00120400504430CE001218B
:10153000090501E0032109050C436978814203D1C3
:101540000120000524186D1C6D1C2878692874D0B2
:1015500006DC00288BD0632827D0642806D16CE0F5
:101560006E2808D073282CD0752878D0129A11993B
:101570009047761C5FE06002400F022809D00328E4
:101580000DD00428109801680DD00E60001D109039
:1015900051E01098F21701680E604A60F6E7109863
:1015A00001680E80F2E70E70F0E710986A46017845
:1015B0001173001D10900020507303A801900120AA
:1015C00005E0109802C8019110900020C043610707
:1015D0000CD5002700E07F1C00998F420FDA87426C
:1015E000F9DB0199C95D0029F5D108E0002700E089
:1015F0007F1C8742FCDB0199C95D0029F8D1029864
:101600002146C01B0290129B119A00F0B3F880197A
:10161000C61907E0019801990078491C0191129AB6
:10162000119990477F1EF5D22146129B119A02987C
:1016300000F090F886196D1C16E70A2001901099A9
:1016400001C910916102490F032900D100B2042998
:1016500000D140B2002803DA40422D2103E00DE022
:10166000210504D52B216A461173012103E0E1070E
:1016700011D02021F7E70CAF0C9114E00A20019063
:10168000109901C910916102490F032900D180B25C
:10169000042900D1C0B20021EDE70199FEF728FD31
:1016A00030317F1E39700028F7D104A8C01B2030CC
:1016B0000190600704D5012000048443009801E0F4
:1016C000012000900199884201DD401A00E00020CD
:1016D000411800900C9809180298401A0290E003F3
:1016E00006D42146129B119A029800F043F88619FD
:1016F00000200D9008E003A9085C129A1199904708
:101700000D98401C761C0D900C998842F3DBE00389
:101710000CD52146129B119A029800F02BF88619DD
:1017200004E0129A302011999047761C0099481EC7
:1017300000900029F5DC05E03878129A7F1C119999
:101740009047761C0199481E01900029F4DC6BE754
:1017500009280100F8B5044600251E4617468804EE
:1017600004D405E039462020B0476D1C641EF9D52D
:101770002846F8BDFFB50446002581B01E46C803C3
:1017800001D5302700E02027880404D505E038463D
:101790000399B0476D1C641EF9D5284605B0F0BD0D
:1017A0000A68531C0B601070704700001CB5FEF7F0
:1017B000D7FDFFF711FDFFF757FC002410480094F8
:1017C0000E49019401600F49846041600E494461F3
:1017D000C160FFF781F90094694609480194FFF759
:1017E0005DF9FFF77DFC00F059F8054800213C3811
:1017F000FFF763FB0248FFF7C9F9FEE7001000405E
:101800005C0400207F3E00008713000070B50E4E80
:1018100000242046B030C0B200F0EEF8022000F004
:10182000EBF8102000F0E8F80025E8008019005DD2
:1018300000F000F96D1CEDB2802DF6D3641CE4B20B
:10184000082CE6D370BD000020000020FFB55A78B8
:101850009C7850436043C00800218646E50817E0A5
:1018600074466418A446019C00206418E6000A4CE3
:10187000341909E006465643F61866443779029E45
:101880003618A755401CC0B28542F3D8491CC9B2CE
:101890009142E5D3FFBD00002000002010B5AE202E
:1018A00000F0AAF8022000F0A7F8102000F0A4F839
:1018B000402000F0A1F8812000F09EF8CF2000F039
:1018C0009BF8A12000F098F8C82000F095F8A62019
:1018D00000F092F8A82000F08FF83F2000F08CF87C
:1018E000D32000F089F8002000F086F8D52000F021
:1018F00083F8802000F080F8D92000F07DF8F120F6
:1019000000F07AF8DA2000F077F8122000F074F88E
:10191000DB2000F071F8402000F06EF8202000F08D
:101920006BF8022000F068F88D2000F065F81420B4
:1019300000F062F8A42000F05FF8A62000F05CF848
:10194000AF2000F059F8AF2000F056F8FFF728FC60
:101950006420FEF71BFC10BDFFB581B0049816464D
:10196000477880780C460025009017E00198E2192E
:10197000415D08462038C0B2802A04D3009A002472
:10198000D2089219D6B20A2910D032462146049BB9
:10199000FFF75CFFE019C4B26D1CEDB20198FEF7D1
:1019A000DBFBA842E2D8204605B0F0BD0098002439
:1019B000C0088019C6B2EFE7F8B500240D4E054601
:1019C0000727002208213046FEF7B6FC391B2846BF
:1019D000C840C207D20F20213046FEF7ADFC0122DD
:1019E00008213046FEF7A8FC641CE4B2082CE8D3BA
:1019F000F8BD00000004005070B505240646240719
:101A0000002210212046FEF797FCFF250135002219
:101A100029462046FEF790FC3046FFF7CDFF012215
:101A200029462046FEF788FC012210212046FEF7B9
:101A300083FC70BD70B505240646240701221021E1
:101A40002046FEF779FCFF25013500222946204675
:101A5000FEF772FC3046FFF7AFFF01222946204611
:101A6000FEF76AFC012210212046FEF765FC70BDDE
:101A7000000608200000000000000000002F000009
:101A800000000700070000147F147F1400242A7F41
:101A90002A120023130864620036495522500000C0
:101AA0000503000000001C224100000041221C0030
:101AB0000014083E08140008083E0808000000A0B2
:101AC00060000008080808080000606000000020AE
:101AD00010080402003E5149453E0000427F40008C
:101AE000004261514946002141454B310018141212
:101AF0007F10002745454539003C4A4949300001DF
:101B00007109050300364949493600064949291E2D
:101B1000000036360000000056360000000814228F
:101B2000410000141414141400004122140800028F
:101B30000151090600324959513E007C1211127CB4
:101B4000007F49494936003E41414122007F4141E1
:101B5000221C007F49494941007F09090901003ED3
:101B60004149497A007F0808087F0000417F410011
:101B7000002040413F01007F08142241007F404087
:101B80004040007F020C027F007F0408107F003E6F
:101B90004141413E007F09090906003E4151215E55
:101BA000007F091929460046494949310001017F52
:101BB0000101003F4040403F001F2040201F003FE8
:101BC0004038403F0063140814630007087008079A
:101BD00000615149454300007F41410000552A55AD
:101BE0002A55000041417F00000402010204004028
:101BF000404040400000010204000020545454784A
:101C0000007F484444380038444444200038444469
:101C1000487F00385454541800087E090102001807
:101C2000A4A4A47C007F080404780000447D400044
:101C3000004080847D00007F102844000000417F28
:101C40004000007C04180478007C08040478003804
:101C50004444443800FC242424180018242418FC8C
:101C6000007C0804040800485454542000043F44F5
:101C70004020003C4040207C001C2040201C003CB8
:101C80004030403C004428102844001CA0A0A07C08
:101C9000004464544C440000087700000000007FBA
:101CA000000000007708000000100810080014145D
:101CB00014141414000000000000000000010203CE
:101CC0000406070809030406080C10182030000059
:101CD000F01C000800000020200000003014000864
:101CE000101D000820000020A80900004014000872
:101CF00000000000000000000000000000000000E4
:101D000001000000040000000000000000002000AE
:04000005080000C12E
:00000001FF
